{
    "_format": "hh-sol-artifact-1",
    "contractName": "Add_Swap_Contract",
    "sourceName": "contracts/Add_Swap_Contract.sol",
    "abi": [
        {
            "inputs": [
                {
                    "internalType": "address",
                    "name": "_swapRouter",
                    "type": "address"
                },
                {
                    "internalType": "address",
                    "name": "_positionManager",
                    "type": "address"
                },
                {
                    "internalType": "address",
                    "name": "_pool",
                    "type": "address"
                }
            ],
            "stateMutability": "nonpayable",
            "type": "constructor"
        },
        {
            "anonymous": false,
            "inputs": [
                {
                    "indexed": true,
                    "internalType": "uint256",
                    "name": "id",
                    "type": "uint256"
                },
                {
                    "indexed": true,
                    "internalType": "enum Add_Swap_Contract.TransactionType",
                    "name": "transactionType",
                    "type": "uint8"
                },
                {
                    "indexed": false,
                    "internalType": "bytes32",
                    "name": "txHash",
                    "type": "bytes32"
                },
                {
                    "indexed": true,
                    "internalType": "address",
                    "name": "user",
                    "type": "address"
                }
            ],
            "name": "TransactionAdded",
            "type": "event"
        },
        {
            "inputs": [
                {
                    "internalType": "uint256",
                    "name": "amount0Desired",
                    "type": "uint256"
                },
                {
                    "internalType": "uint256",
                    "name": "amount1Desired",
                    "type": "uint256"
                }
            ],
            "name": "addLiquidity",
            "outputs": [
                {
                    "internalType": "uint256",
                    "name": "tokenId",
                    "type": "uint256"
                }
            ],
            "stateMutability": "nonpayable",
            "type": "function"
        },
        {
            "inputs": [
                {
                    "internalType": "uint256",
                    "name": "amount0Desired",
                    "type": "uint256"
                },
                {
                    "internalType": "uint256",
                    "name": "amount1Desired",
                    "type": "uint256"
                },
                {
                    "internalType": "int24",
                    "name": "tickLower",
                    "type": "int24"
                },
                {
                    "internalType": "int24",
                    "name": "tickUpper",
                    "type": "int24"
                }
            ],
            "name": "addLiquidityWithRange",
            "outputs": [
                {
                    "internalType": "uint256",
                    "name": "tokenId",
                    "type": "uint256"
                }
            ],
            "stateMutability": "nonpayable",
            "type": "function"
        },
        {
            "inputs": [
                {
                    "internalType": "enum Add_Swap_Contract.TransactionType",
                    "name": "transactionType",
                    "type": "uint8"
                },
                {
                    "internalType": "string",
                    "name": "fromToken",
                    "type": "string"
                },
                {
                    "internalType": "string",
                    "name": "toToken",
                    "type": "string"
                },
                {
                    "internalType": "uint256",
                    "name": "fromAmount",
                    "type": "uint256"
                },
                {
                    "internalType": "uint256",
                    "name": "toAmount",
                    "type": "uint256"
                },
                {
                    "internalType": "bytes32",
                    "name": "txHash",
                    "type": "bytes32"
                }
            ],
            "name": "addTransactionToHistory",
            "outputs": [],
            "stateMutability": "nonpayable",
            "type": "function"
        },
        {
            "inputs": [
                {
                    "internalType": "uint256",
                    "name": "",
                    "type": "uint256"
                }
            ],
            "name": "allTransactions",
            "outputs": [
                {
                    "internalType": "uint256",
                    "name": "id",
                    "type": "uint256"
                },
                {
                    "internalType": "enum Add_Swap_Contract.TransactionType",
                    "name": "transactionType",
                    "type": "uint8"
                },
                {
                    "internalType": "string",
                    "name": "fromToken",
                    "type": "string"
                },
                {
                    "internalType": "string",
                    "name": "toToken",
                    "type": "string"
                },
                {
                    "internalType": "uint256",
                    "name": "fromAmount",
                    "type": "uint256"
                },
                {
                    "internalType": "uint256",
                    "name": "toAmount",
                    "type": "uint256"
                },
                {
                    "internalType": "uint256",
                    "name": "timestamp",
                    "type": "uint256"
                },
                {
                    "internalType": "bytes32",
                    "name": "hash",
                    "type": "bytes32"
                },
                {
                    "internalType": "string",
                    "name": "status",
                    "type": "string"
                }
            ],
            "stateMutability": "view",
            "type": "function"
        },
        {
            "inputs": [],
            "name": "fee",
            "outputs": [
                {
                    "internalType": "uint24",
                    "name": "",
                    "type": "uint24"
                }
            ],
            "stateMutability": "view",
            "type": "function"
        },
        {
            "inputs": [],
            "name": "getAllTransactionHistory",
            "outputs": [
                {
                    "components": [
                        {
                            "internalType": "uint256",
                            "name": "id",
                            "type": "uint256"
                        },
                        {
                            "internalType": "enum Add_Swap_Contract.TransactionType",
                            "name": "transactionType",
                            "type": "uint8"
                        },
                        {
                            "internalType": "string",
                            "name": "fromToken",
                            "type": "string"
                        },
                        {
                            "internalType": "string",
                            "name": "toToken",
                            "type": "string"
                        },
                        {
                            "internalType": "uint256",
                            "name": "fromAmount",
                            "type": "uint256"
                        },
                        {
                            "internalType": "uint256",
                            "name": "toAmount",
                            "type": "uint256"
                        },
                        {
                            "internalType": "uint256",
                            "name": "timestamp",
                            "type": "uint256"
                        },
                        {
                            "internalType": "bytes32",
                            "name": "hash",
                            "type": "bytes32"
                        },
                        {
                            "internalType": "string",
                            "name": "status",
                            "type": "string"
                        }
                    ],
                    "internalType": "struct Add_Swap_Contract.Transaction[]",
                    "name": "",
                    "type": "tuple[]"
                }
            ],
            "stateMutability": "view",
            "type": "function"
        },
        {
            "inputs": [],
            "name": "getCurrentTick",
            "outputs": [
                {
                    "internalType": "int24",
                    "name": "tick",
                    "type": "int24"
                }
            ],
            "stateMutability": "view",
            "type": "function"
        },
        {
            "inputs": [],
            "name": "getPool",
            "outputs": [
                {
                    "internalType": "address",
                    "name": "",
                    "type": "address"
                }
            ],
            "stateMutability": "view",
            "type": "function"
        },
        {
            "inputs": [],
            "name": "getPoolBalances",
            "outputs": [
                {
                    "internalType": "uint256",
                    "name": "bal0",
                    "type": "uint256"
                },
                {
                    "internalType": "uint256",
                    "name": "bal1",
                    "type": "uint256"
                }
            ],
            "stateMutability": "view",
            "type": "function"
        },
        {
            "inputs": [],
            "name": "getPoolInfo",
            "outputs": [
                {
                    "internalType": "uint160",
                    "name": "sqrtPriceX96",
                    "type": "uint160"
                },
                {
                    "internalType": "int24",
                    "name": "tick",
                    "type": "int24"
                },
                {
                    "internalType": "uint128",
                    "name": "liquidity",
                    "type": "uint128"
                }
            ],
            "stateMutability": "view",
            "type": "function"
        },
        {
            "inputs": [
                {
                    "internalType": "uint256",
                    "name": "tokenId",
                    "type": "uint256"
                }
            ],
            "name": "getPosition",
            "outputs": [
                {
                    "internalType": "uint128",
                    "name": "liquidity",
                    "type": "uint128"
                }
            ],
            "stateMutability": "view",
            "type": "function"
        },
        {
            "inputs": [],
            "name": "getTokenPrice",
            "outputs": [
                {
                    "internalType": "uint256",
                    "name": "price",
                    "type": "uint256"
                }
            ],
            "stateMutability": "view",
            "type": "function"
        },
        {
            "inputs": [],
            "name": "getUserTransactionHistory",
            "outputs": [
                {
                    "components": [
                        {
                            "internalType": "uint256",
                            "name": "id",
                            "type": "uint256"
                        },
                        {
                            "internalType": "enum Add_Swap_Contract.TransactionType",
                            "name": "transactionType",
                            "type": "uint8"
                        },
                        {
                            "internalType": "string",
                            "name": "fromToken",
                            "type": "string"
                        },
                        {
                            "internalType": "string",
                            "name": "toToken",
                            "type": "string"
                        },
                        {
                            "internalType": "uint256",
                            "name": "fromAmount",
                            "type": "uint256"
                        },
                        {
                            "internalType": "uint256",
                            "name": "toAmount",
                            "type": "uint256"
                        },
                        {
                            "internalType": "uint256",
                            "name": "timestamp",
                            "type": "uint256"
                        },
                        {
                            "internalType": "bytes32",
                            "name": "hash",
                            "type": "bytes32"
                        },
                        {
                            "internalType": "string",
                            "name": "status",
                            "type": "string"
                        }
                    ],
                    "internalType": "struct Add_Swap_Contract.Transaction[]",
                    "name": "",
                    "type": "tuple[]"
                }
            ],
            "stateMutability": "view",
            "type": "function"
        },
        {
            "inputs": [],
            "name": "pool",
            "outputs": [
                {
                    "internalType": "contract IUniswapV3Pool",
                    "name": "",
                    "type": "address"
                }
            ],
            "stateMutability": "view",
            "type": "function"
        },
        {
            "inputs": [],
            "name": "positionManager",
            "outputs": [
                {
                    "internalType": "contract INonfungiblePositionManager",
                    "name": "",
                    "type": "address"
                }
            ],
            "stateMutability": "view",
            "type": "function"
        },
        {
            "inputs": [
                {
                    "internalType": "address",
                    "name": "inputToken",
                    "type": "address"
                },
                {
                    "internalType": "address",
                    "name": "outputToken",
                    "type": "address"
                },
                {
                    "internalType": "uint256",
                    "name": "amountIn",
                    "type": "uint256"
                }
            ],
            "name": "swapExactInputSingle",
            "outputs": [
                {
                    "internalType": "uint256",
                    "name": "amountOut",
                    "type": "uint256"
                }
            ],
            "stateMutability": "nonpayable",
            "type": "function"
        },
        {
            "inputs": [],
            "name": "swapRouter",
            "outputs": [
                {
                    "internalType": "contract ISwapRouter",
                    "name": "",
                    "type": "address"
                }
            ],
            "stateMutability": "view",
            "type": "function"
        },
        {
            "inputs": [],
            "name": "token0",
            "outputs": [
                {
                    "internalType": "address",
                    "name": "",
                    "type": "address"
                }
            ],
            "stateMutability": "view",
            "type": "function"
        },
        {
            "inputs": [],
            "name": "token1",
            "outputs": [
                {
                    "internalType": "address",
                    "name": "",
                    "type": "address"
                }
            ],
            "stateMutability": "view",
            "type": "function"
        }
    ],
    "bytecode": "0x60e060405234620000b5576200001f6200001862000179565b916200030a565b604051612d3e620004df823960805181818161077a0152818161212d015261220e015260a05181818161070201528181611a2101528181611c9101528181611da1015281816124fb015281816126cf01526127b7015260c05181818161024001528181610c02015281816111f60152818161132601528181611408015281816114ac015281816114f801526129010152612d3e90f35b600080fd5b634e487b7160e01b600052604160045260246000fd5b90601f01601f191681019081106001600160401b03821117620000f257604052565b620000ba565b906200010f6200010760405190565b9283620000d0565b565b6001600160a01b031690565b90565b6001600160a01b0381165b03620000b557565b905051906200010f8262000120565b9091606082840312620000b5576200011d6200015f848462000133565b936200016f816020860162000133565b9360400162000133565b6200019c6200321d803803806200019081620000f8565b92833981019062000142565b909192565b9062ffffff60a01b9060a01b5b9181191691161790565b620001c86200011d6200011d9290565b62ffffff1690565b90620001e46200011d620001ec92620001b8565b8254620001a1565b9055565b6200011d9062000111906001600160a01b031682565b6200011d90620001f0565b6200011d9062000206565b516001600160a01b031690565b90602082820312620000b5576200011d9162000133565b6040513d6000823e3d90fd5b906001600160a01b0390620001ae565b90620002706200011d620001ec9262000211565b82546200024c565b62ffffff81166200012b565b905051906200010f8262000278565b90602082820312620000b5576200011d9162000284565b620001c86200011d6200011d9262ffffff1690565b90620001e46200011d620001ec92620002aa565b6200011d6200011d6200011d9290565b9060001990620001ae565b90620003026200011d620001ec92620002d3565b8254620002e3565b6200034092916200032e6200033792620003286101f46001620001d0565b62000211565b60805262000211565b60a05262000211565b60c052620003726020620003596200032860c06200021c565b630dfe1681906200036960405190565b93849260e01b90565b825260049082905afa801562000480576200039991600091620004bb575b5060006200025c565b620003bf6020620003af6200032860c06200021c565b63d21220a7906200036960405190565b825260049082905afa80156200048057620003e69160009162000486575b5060016200025c565b6200040c6020620003fc6200032860c06200021c565b63ddca3f43906200036960405190565b825260049082905afa8015620004805762000433916000916200044b575b506001620002bf565b6200010f620004436001620002d3565b6003620002ee565b62000471915060203d811162000478575b620004688183620000d0565b81019062000293565b386200042a565b503d6200045c565b62000240565b620004ac915060203d8111620004b3575b620004a38183620000d0565b81019062000229565b38620003dd565b503d62000497565b620004d7915060203d8111620004b357620004a38183620000d0565b386200039056fe6080604052600436101561001257600080fd5b60003560e01c8063026b1d5f146101425780630dfe16811461013d57806316f0115b146101385780634abf5dc1146101335780634b94f50e1461012e57806352375bb11461012957806353aad1d91461012457806360246c881461011f578063784394bc1461011a578063791b98bc146101155780639cd441da14610110578063c31c9c071461010b578063c979affb14610106578063ceb9201214610101578063d21220a7146100fc578063d7ff0714146100f7578063ddca3f43146100f2578063eb02c301146100ed5763fa1b80250361015257610bde565b610b4d565b610b1c565b610abd565b61082d565b610805565b61079e565b610765565b610749565b6106ed565b6106c6565b6104e3565b610471565b610443565b610405565b6103e1565b61022b565b6101cf565b61016c565b600091031261015257565b600080fd5b6001600160a01b031690565b90565b9052565b565b346101525761017c366004610147565b6101a1610187610bfd565b604051918291826001600160a01b03909116815260200190565b0390f35b610163916008021c6001600160a01b031690565b9061016391546101a5565b6101636000806101b9565b34610152576101df366004610147565b6101a16101876101c4565b610157610163610163926001600160a01b031690565b610163906101ea565b61016390610200565b61016690610209565b60208101929161016a9190610212565b346101525761023b366004610147565b6101a17f00000000000000000000000000000000000000000000000000000000000000005b6040519182918261021b565b6002111561015257565b9050359061016a8261026c565b634e487b7160e01b600052604160045260246000fd5b90601f01601f1916810190811067ffffffffffffffff8211176102bb57604052565b610283565b9061016a6102cd60405190565b9283610299565b67ffffffffffffffff81116102bb57602090601f01601f19160190565b0190565b90826000939282370152565b90929192610316610311826102d4565b6102c0565b938185526020850190828401116101525761016a926102f5565b9080601f830112156101525781602061016393359101610301565b805b0361015257565b9050359061016a8261034b565b909160c082840312610152576103778383610276565b92602083013567ffffffffffffffff81116101525781610398918501610330565b92604081013567ffffffffffffffff811161015257826103b9918301610330565b926101636103ca8460608501610354565b936103d88160808601610354565b9360a001610354565b34610152576104006103f4366004610361565b94939093929192610fd4565b604051005b3461015257610415366004610147565b6101a16104206111ec565b6040519182918290815260200190565b90815260408101929161016a9160200152565b3461015257610453366004610147565b61045b6112fe565b906101a161046860405190565b92839283610430565b3461015257610481366004610147565b6101a161048c6113fe565b6040519182918260029190910b815260200190565b6001600160a01b03909116815260608101939261016a9290916040916104cb9060020b6020830152565b01906fffffffffffffffffffffffffffffffff169052565b34610152576104f3366004610147565b6101a16104fe6114a2565b604051919391938493846104a1565b634e487b7160e01b600052602160045260246000fd5b6002111561052d57565b61050d565b9061016a82610523565b61016390610532565b6101669061053c565b60005b8381106105615750506000910152565b8181015183820152602001610551565b61059261059b6020936102f193610586815190565b80835293849260200190565b9586910161054e565b601f01601f191690565b80518252610163916101006105f16105df61012084016105cd60208701516020870190610545565b60408601518582036040870152610571565b60608501518482036060860152610571565b9261060160808201516080850152565b61061060a082015160a0850152565b61061f60c082015160c0850152565b61062e60e082015160e0850152565b015190610100818403910152610571565b90610163916105a5565b9061065f610655835190565b8083529160200190565b90816106716020830284019460200190565b926000915b83831061068557505050505090565b909192939460206106a86106a18385600195038752895161063f565b9760200190565b9301930191939290610676565b602080825261016392910190610649565b34610152576106d6366004610147565b6101a16106e16116e9565b604051918291826106b5565b34610152576106fd366004610147565b6101a17f0000000000000000000000000000000000000000000000000000000000000000610260565b919060408382031261015257610163906107408185610354565b93602001610354565b34610152576101a161042061075f366004610726565b90611912565b3461015257610775366004610147565b6101a17f0000000000000000000000000000000000000000000000000000000000000000610260565b34610152576107ae366004610147565b6101a16106e1611e40565b6001600160a01b03811661034d565b9050359061016a826107b9565b9091606082840312610152576101636107ee84846107c8565b936107fc81602086016107c8565b93604001610354565b34610152576101a161042061081b3660046107d5565b91612061565b610163600060016101b9565b346101525761083d366004610147565b6101a1610187610821565b906020828203126101525761016391610354565b634e487b7160e01b600052603260045260246000fd5b80548210156108955761088c600991600052602060002090565b91020190600090565b61085c565b6101639081565b610163905461089a565b610163905b60ff1690565b61016390546108ab565b634e487b7160e01b600052602260045260246000fd5b90600160028304921680156108f6575b60208310146108f157565b6108c0565b91607f16916108e6565b8054600093929161091d610913836108d6565b8085529360200190565b916001811690811561096f575060011461093657505050565b6109499192939450600052602060002090565b916000925b81841061095b5750500190565b80548484015260209093019260010161094e565b92949550505060ff1916825215156020020190565b9061016391610900565b9061016a6109a89261099f60405190565b93848092610984565b0383610299565b6004906109ba825490565b811015610152576109ca91610872565b506109d4816108a1565b916109e1600183016108b6565b916109ee6002820161098e565b916109fb6003830161098e565b91610a08600482016108a1565b91610a15600583016108a1565b91610a22600682016108a1565b916101636008610a34600785016108a1565b930161098e565b95610a9a610a92610aaf979a96610a84610aa195610aa8986101639f9d98610a779060208f610a706101208201966000830152565b0190610545565b8c820360408e0152610571565b908a820360608c0152610571565b996080890152565b60a0870152565b60c0850152565b60e0830152565b610100818403910152610571565b34610152576101a1610ad8610ad3366004610848565b6109af565b95610aeb99979995919594929460405190565b998a998a610a3b565b610163916008021c5b62ffffff1690565b906101639154610af4565b61016360146001610b05565b3461015257610b2c366004610147565b6101a1610b37610b10565b6040519182918262ffffff909116815260200190565b34610152576101a1610b68610b63366004610848565b6124e6565b604051918291826fffffffffffffffffffffffffffffffff909116815260200190565b61034d8160020b90565b9050359061016a82610b8b565b60808183031261015257610bb68282610354565b92610163610bc78460208501610354565b93610bd58160408601610b95565b93606001610b95565b34610152576101a1610420610bf4366004610ba2565b929190916125f2565b6101637f0000000000000000000000000000000000000000000000000000000000000000610209565b6101636101206102c0565b9061016690610532565b90610c48610311836102d4565b918252565b610c576009610c3b565b7f636f6e6669726d65640000000000000000000000000000000000000000000000602082015290565b610163610c4d565b634e487b7160e01b600052600060045260246000fd5b90600019905b9181191691161790565b6101636101636101639290565b90610ccb610163610cd292610cae565b8254610c9e565b9055565b6101639051610532565b9060ff90610ca4565b90610cf9610163610cd29261053c565b8254610ce0565b91906008610ca4910291610d15600019841b90565b921b90565b9190610d2b610163610cd293610cae565b908354610d00565b61016a91600091610d1a565b818110610d4a575050565b80610d586000600193610d33565b01610d3f565b9190601f8111610d6d57505050565b610d7f61016a93600052602060002090565b906020601f840181900483019310610da1575b6020601f909101040190610d3f565b9091508190610d92565b90610db4815190565b9067ffffffffffffffff82116102bb57610dd882610dd285546108d6565b85610d5e565b602090601f8311600114610e1357610cd2929160009183610e08575b5050600019600883021c1916906002021790565b015190503880610df4565b601f19831691610e2885600052602060002090565b9260005b818110610e6657509160029391856001969410610e4d575b50505002019055565b01516000196008601f8516021c19169055388080610e44565b91936020600181928787015181550195019201610e2c565b9061016a91610dab565b90610ccb610163610cd29290565b61016a9190610ee39061010090600890610eb881610eb2875190565b90610cbb565b610ed160018201610ecb60208801610cd6565b90610ce9565b610ee960028201610ee3604088015190565b90610e7e565b610efb60038201610ee3606088015190565b610f0d60048201610eb2608088015190565b610f1f60058201610eb260a088015190565b610f3160068201610eb260c088015190565b610f4960078201610f4360e088015190565b90610e88565b0192015190565b9190610f5f5761016a91610e96565b610c88565b90815491680100000000000000008310156102bb5782610f8c91600161016a95018155610872565b90610f50565b90610f9c90610209565b600052602052604060002090565b634e487b7160e01b600052601160045260246000fd5b6000198114610fcf5760010190565b610faa565b9392919091610fe360036108a1565b93869342939192919087610ff5610c26565b9788526110059060208901610c31565b60408701526060860152608085015260a084015260c083015260e082015261102b610c80565b61010082015261103c816004610f64565b611047336002610f92565b8161105191610f64565b61105b60036108a1565b61106490610fc0565b61106f906003610cbb565b519033917f19c7fb851f92c8d4f19411743a614909b5753cf16d0ef77d269c04e51eaa7f0e9061109e90610cae565b916110a89061053c565b926110b290610209565b936110bc60405190565b908152602090a4565b9050519061016a826107b9565b9050519061016a82610b8b565b61ffff811661034d565b9050519061016a826110df565b60ff811661034d565b9050519061016a826110f6565b80151561034d565b9050519061016a8261110c565b60e0818303126101525761113582826110c5565b9261114383602084016110d2565b9261115181604085016110e9565b9261115f82606083016110e9565b9261016361117084608085016110e9565b9361117e8160a086016110ff565b9360c001611114565b6040513d6000823e3d90fd5b610163610163610163926001600160a01b031690565b81810292918115918404141715610fcf57565b634e487b7160e01b600052601260045260246000fd5b906111dc565b9190565b9081156111e7570490565b6111bc565b61123260e061121a7f0000000000000000000000000000000000000000000000000000000000000000610209565b633850c7bd9061122960405190565b93849260e01b90565b825260049082905afa9081156112c5576101639161126b91600091611293575b5061126561125f82611193565b91611193565b906111a9565b61128d7801000000000000000000000000000000000000000000000000610cae565b906111d2565b6112b4915060e03d81116112be575b6112ac8183610299565b810190611121565b5050505050611252565b503d6112a2565b611187565b61016390610157565b61016390546112ca565b9050519061016a8261034b565b9060208282031261015257610163916112dd565b611378602061131861131361131360006112d3565b610209565b6370a082319061136161134a7f0000000000000000000000000000000000000000000000000000000000000000610209565b9261135460405190565b9586948593849360e01b90565b83526001600160a01b031660048301526024820190565b03915afa9081156112c5576000916113e0575b50906113a2602061131861131361131360016112d3565b03915afa9081156112c5576000916113b8575090565b610163915060203d81116113d9575b6113d18183610299565b8101906112ea565b503d6113c7565b6113f8915060203d81116113d9576113d18183610299565b3861138b565b61142c60e061121a7f0000000000000000000000000000000000000000000000000000000000000000610209565b825260049082905afa9081156112c557600091611447575090565b61145f915060e03d81116112be576112ac8183610299565b5050505050905090565b6fffffffffffffffffffffffffffffffff811661034d565b9050519061016a82611469565b906020828203126101525761016391611481565b6114d060e061121a7f0000000000000000000000000000000000000000000000000000000000000000610209565b825260049082905afa9081156112c55760008091909261156e575b50909161152b602061151c7f0000000000000000000000000000000000000000000000000000000000000000610209565b631a6865029061122960405190565b825260049082905afa9081156112c557600091611546575090565b610163915060203d8111611567575b61155f8183610299565b81019061148e565b503d611555565b9050611588915060e03d81116112be576112ac8183610299565b505050506114eb565b67ffffffffffffffff81116102bb5760208091020190565b90610c4861031183611591565b9061016a61167a60086115c7610c26565b946115d86115d4826108a1565b8752565b6115f06115e7600183016108b6565b60208801610c31565b6116066115ff6002830161098e565b6040880152565b61161c6116156003830161098e565b6060880152565b61163261162b600483016108a1565b6080880152565b611648611641600583016108a1565b60a0880152565b61165e611657600683016108a1565b60c0880152565b61167461166d600783016108a1565b60e0880152565b0161098e565b610100840152565b610163906115b6565b90611694825490565b61169d816115a9565b926116b16020850191600052602060002090565b6000915b8383106116c25750505050565b600960206001926116d285611682565b8152019201920191906116b5565b6101639061168b565b61016360046116e0565b156116fa57565b6040517f08c379a000000000000000000000000000000000000000000000000000000000815260206004820152601c60248201527f4d7573742070726f76696465206e6f6e2d7a65726f20616d6f756e74000000006044820152606490fd5b906020828203126101525761016391611114565b6001600160a01b0391821681529116602082015260608101929161016a9160400152565b6001600160a01b03909116815260408101929161016a9160200152565b6101639060a01c610afd565b61016390546117ae565b91908201809211610fcf57565b6101636101606102c0565b608081830312610152576117f082826112dd565b926101636118018460208501611481565b9361180f81604086016112dd565b936060016112dd565b80516001600160a01b0316825261016a91906101409081906020818101516001600160a01b03169085015260408181015162ffffff169085015260608181015160020b9085015260808181015160020b9085015261187b60a082015160a0860152565b61188a60c082015160c0860152565b61189960e082015160e0860152565b6118aa610100820151610100860152565b610120818101516001600160a01b0316908501520151910152565b6101608101929161016a9190611818565b610166906001600160a01b031660601b90565b60206102f19461190c82809998959661190c60148761190c61190c99869c6118d6565b01918252565b806119206111d86000610cae565b118015611e26575b611931906116f3565b8061193f6111d86000610cae565b11611d3e575b816119536111d86000610cae565b11611c16575b6119616128f7565b61196b60006112d3565b9161197660016112d3565b9161198160016117ba565b3392600092839289928992914261199961012c610cae565b6119a2916117c4565b986119ab6117d1565b6001600160a01b03909b168b526001600160a01b031660208b015262ffffff1660408a015260020b606089015260020b608088015260a087015260c08601526119f390610cae565b60e0850152611a0190610cae565b6101008401526001600160a01b0316610120830152610140820152611a457f0000000000000000000000000000000000000000000000000000000000000000610209565b6388316456611a5360405190565b8093611a60829360e01b90565b8252611a6f90600483016118c5565b03815a608094600091f19081156112c557600091611be7575b509133428391838690611a9a60405190565b948594611aaa94602087016118e9565b602082018103825203611abd9082610299565b80519060200120611ace60036108a1565b92600092611adc60006112d3565b611ae590612a46565b91611af060016112d3565b611af990612a46565b909192429495611b07610c26565b978852611b179060208901610c31565b60408701526060860152608085015260a084015260c083015260e0820152611b3d610c80565b610100820152611b4e816004610f64565b611b59336002610f92565b81611b6391610f64565b611b6d60036108a1565b611b7690610fc0565b611b81906003610cbb565b805160009160e001611b91905190565b9133917f19c7fb851f92c8d4f19411743a614909b5753cf16d0ef77d269c04e51eaa7f0e90611bbf90610cae565b91611bc99061053c565b92611bd390610209565b93611bdd60405190565b908152602090a490565b611c08915060803d8111611c0f575b611c008183610299565b8101906117dc565b5050611a88565b503d611bf6565b611c2661131361131360016112d3565b60206323b872dd913390611c596000611c3e30610209565b95611c6489611c4c60405190565b9889978896879560e01b90565b85526004850161176d565b03925af180156112c557611d22575b50611c8461131361131360016112d3565b602063095ea7b391611cb57f0000000000000000000000000000000000000000000000000000000000000000610209565b90611cd660008795611ce1611cc960405190565b9788968795869460e01b90565b845260048401611791565b03925af180156112c557611cf6575b50611959565b611d169060203d8111611d1b575b611d0e8183610299565b810190611759565b611cf0565b503d611d04565b611d399060203d8111611d1b57611d0e8183610299565b611c73565b611d4e61131361131360006112d3565b60206323b872dd913390611c596000611d6630610209565b95611d7488611c4c60405190565b03925af180156112c557611e0a575b50611d9461131361131360006112d3565b602063095ea7b391611dc57f0000000000000000000000000000000000000000000000000000000000000000610209565b90611cd660008695611dd9611cc960405190565b03925af180156112c557611dee575b50611945565b611e059060203d8111611d1b57611d0e8183610299565b611de8565b611e219060203d8111611d1b57611d0e8183610299565b611d83565b5061193182611e386111d86000610cae565b119050611928565b610163611e4e336002610f92565b6116e0565b15611e5a57565b6040517f08c379a000000000000000000000000000000000000000000000000000000000815260206004820152601360248201527f496e76616c696420696e70757420746f6b656e000000000000000000000000006044820152606490fd5b15611ec057565b6040517f08c379a000000000000000000000000000000000000000000000000000000000815260206004820152601460248201527f496e76616c6964206f757470757420746f6b656e0000000000000000000000006044820152606490fd5b15611f2657565b6040517f08c379a000000000000000000000000000000000000000000000000000000000815260206004820152601660248201527f43616e6e6f7420737761702073616d6520746f6b656e000000000000000000006044820152606490fd5b6101636101006102c0565b6101576101636101639290565b80516001600160a01b0316825261016a919060e09081906020818101516001600160a01b03169085015260408181015162ffffff16908501526060808201516001600160a01b031690850152611ff860808201516080860152565b61200760a082015160a0860152565b61201660c082015160c0860152565b01516001600160a01b0316910152565b6101008101929161016a9190611f9d565b60146102f19461205960208396612059858761190c61190c99869f9e9b6118d6565b0180926118d6565b9091908061208261207561015760006112d3565b916001600160a01b031690565b1480156123dd575b61209390611e53565b826120a461207561015760006112d3565b1480156123c0575b6120b590611eb9565b6120d2816120cb6001600160a01b038616612075565b1415611f1f565b6120de61131382610209565b60206323b872dd913390611c5960006120f630610209565b9561210489611c4c60405190565b03925af180156112c5576123a4575b5061212061131382610209565b602063095ea7b3916121517f0000000000000000000000000000000000000000000000000000000000000000610209565b90611cd660008795612165611cc960405190565b03925af180156112c557612388575b50808361218160016117ba565b334261218e61012c610cae565b612197916117c4565b86916000936000956121a7611f85565b6001600160a01b0390981688526001600160a01b0316602088015262ffffff1660408701526001600160a01b03166060860152608085015260a08401526121ed90610cae565b60c08301526121fb90611f90565b6001600160a01b031660e08201526122327f0000000000000000000000000000000000000000000000000000000000000000610209565b63414bf38961224060405190565b809361224d829360e01b90565b825261225c9060048301612026565b03815a602094600091f19081156112c55760009161236a575b50923342839183869061228760405190565b9485946122979460208701612037565b6020820181038252036122aa9082610299565b80519060200120906122bc60036108a1565b936001936122c990612a46565b916122d390612a46565b86924294956122e0610c26565b9788526122f09060208901610c31565b60408701526060860152608085015260a084015260c083015260e0820152612316610c80565b610100820152612327816004610f64565b612332336002610f92565b8161233c91610f64565b61234660036108a1565b61234f90610fc0565b61235a906003610cbb565b805160019160e001611b91905190565b612382915060203d81116113d9576113d18183610299565b38612275565b61239f9060203d8111611d1b57611d0e8183610299565b612174565b6123bb9060203d8111611d1b57611d0e8183610299565b612113565b506120b5836123d561207561015760016112d3565b1490506120ac565b50612093816123f261207561015760016112d3565b14905061208a565b6bffffffffffffffffffffffff811661034d565b9050519061016a826123fa565b62ffffff811661034d565b9050519061016a8261241b565b9091610180828403126101525761244a838361240e565b9261245881602085016110c5565b9261246682604083016110c5565b9261247483606084016110c5565b926124828160808501612426565b926124908260a083016110d2565b9261249e8360c084016110d2565b926124ac8160e08501611481565b926124bb8261010083016112dd565b926101636124cd8461012085016112dd565b936124dc816101408601611481565b9361016001611481565b61018061253e916124f5600090565b5061251f7f0000000000000000000000000000000000000000000000000000000000000000610209565b6125306399fbab8861135460405190565b835260048301526024820190565b03915afa9081156112c557600091612554575090565b61257691506101803d8111612585575b61256e8183610299565b810190612433565b50505050965050505050505090565b503d612564565b1561259357565b6040517f08c379a000000000000000000000000000000000000000000000000000000000815260206004820152601260248201527f496e76616c6964207469636b2072616e676500000000000000000000000000006044820152606490fd5b9190926125fd600090565b508261260c6111d86000610cae565b11801561283c575b61261d906116f3565b61263b8261263561262e8460020b90565b9160020b90565b1261258c565b826126496111d86000610cae565b11612754575b8361265d6111d86000610cae565b1161266c5761196b60006112d3565b61267c61131361131360016112d3565b60206323b872dd913390611c59600061269430610209565b956126a28b611c4c60405190565b03925af180156112c557612738575b506126c261131361131360016112d3565b602063095ea7b3916126f37f0000000000000000000000000000000000000000000000000000000000000000610209565b90611cd660008995612707611cc960405190565b03925af180156112c55761271c575b50611961565b6127339060203d8111611d1b57611d0e8183610299565b612716565b61274f9060203d8111611d1b57611d0e8183610299565b6126b1565b61276461131361131360006112d3565b60206323b872dd913390611c59600061277c30610209565b9561278a8a611c4c60405190565b03925af180156112c557612820575b506127aa61131361131360006112d3565b602063095ea7b3916127db7f0000000000000000000000000000000000000000000000000000000000000000610209565b90611cd6600088956127ef611cc960405190565b03925af180156112c557612804575b5061264f565b61281b9060203d8111611d1b57611d0e8183610299565b6127fe565b6128379060203d8111611d1b57611d0e8183610299565b612799565b5061261d8461284e6111d86000610cae565b119050612614565b6128636101636101639290565b60020b90565b6128759060020b61262e565b900390627fffff8213627fffff19831217610fcf57565b6128989060020b61262e565b9081156111e757627fffff198114600019831416610fcf570590565b6128c09060020b61262e565b02906128cc8260020b90565b918203610fcf57565b6128e19060020b61262e565b0190627fffff198212627fffff831317610fcf57565b61292560e061121a7f0000000000000000000000000000000000000000000000000000000000000000610209565b825260049082905afa9081156112c557600091612a17575b509061298d61294c600a612856565b61298861298161295d610fa0612856565b61297b61297461296d838a612869565b869061288c565b85906128b4565b966128d5565b829061288c565b6128b4565b90826129bb61262e7ffffffffffffffffffffffffffffffffffffffffffffffffffffffffffff2764c612856565b126129e6575b816129d161262e620d89b4612856565b136129d857565b9050610163620d89b4612856565b9150612a117ffffffffffffffffffffffffffffffffffffffffffffffffffffffffffff2764c612856565b916129c1565b612a2f915060e03d81116112be576112ac8183610299565b50505050509061293d565b6102f1816014936118d6565b612a68612a7761016392612a58606090565b5060405192839160208301612a3a565b60208201810382520382610299565b612ba8565b612a866010610c3b565b7f3031323334353637383961626364656600000000000000000000000000000000602082015290565b610163612a7c565b369037565b9061016a612ac983610c3b565b92602080612ad786936102d4565b9201910390612ab7565b90612aea825190565b811015610895570160200190565b6108b06101636101639290565b612b4490612b3f612b196101639460ff1690565b917fff000000000000000000000000000000000000000000000000000000000000001690565b901c90565b7fff000000000000000000000000000000000000000000000000000000000000001690565b6108b06101636101639260ff1690565b6101639060f81c612b69565b6101636101636101639260ff1690565b612b44612ba26101639290565b60f81b90565b90612bb1612aaf565b612be1612bdc6002612bd7612bd1612bc7885190565b6112656002610cae565b91610cae565b6117c4565b612abc565b906030612bf883612bf26000610cae565b90612ae1565b536078612c0983612bf26001610cae565b53612c146000610cae565b80612c236111d8610163885190565b1015612cfd57612cf890612c88612c4884612bf2612c83612c7e612c6e85888e612ae1565b517fff000000000000000000000000000000000000000000000000000000000000001690565b612c786004612af8565b90612b05565b612b79565b612b85565b612cad8591612ca36002612bd7612bd1876112656002610cae565b9060001a92612ae1565b53612cd6612c4884612bf2612c83612cc684878d612ae1565b612cd0600f612b95565b16612b79565b612cf18591612ca36003612bd7612bd1876112656002610cae565b5360010190565b612c14565b50506101639192509056fea2646970667358221220ea535b820666f08dec86b9c8155aa36087e480b15855b358daff55990c2fcc6064736f6c63430008180033",
    "linkReferences": {},
    "deployedLinkReferences": {}
}